:0200000087294E
:10000800B20011303202031800348A013208820724
:1000180041347534643469346F3420346C34653455
:10002800763465346C343A342034253464340A34F4
:100038000034FF037F0A0319FF037F087F04031DB1
:100048001D2808002608270403193D28A8010430A4
:10005800280203183828A901453029020318362830
:10006800A90A3028A80A2B28A603260A0319A703D9
:10007800262808007F087F0403195728FF01FF017D
:1000880003307F02031C4E28031D522807307F02CD
:1000980003185228FF0A0319FF0A4428FF037F0A9E
:1000A8000319FF033E2808008316031318111812BA
:1000B800831298170C30831699007F1C66280C163B
:1000C8000B178B17981608008316031318111812AC
:1000D800831298170C3083169900831218167F1C08
:1000E800792883168C160B178B1783160800B20015
:1000F8000C1E7C28320899000800831203138C1EFA
:1001080083281A080800FF01FF01831203138C12C9
:100118008C1A9A28FF0A0319FF0A7F08E83A031D78
:100128008C287F08033A031D8C2800341A0808001D
:10013800B2008A0132088207303431343234333421
:10014800343435343634373438343934413442343D
:100158004334443445344634A901AA01A50125088D
:1001680022070420A600A60803198629253A031D9C
:100178008229A50A250822070420A600A608031933
:1001880086295C3A031DCF28A50A250822070420E2
:10019800A6007B2084292608623A031DEB28A701C4
:1001A8000830270203188429A31FDC2831307B205C
:1001B800A31BE02830307B202708033A031DE628DC
:1001C80020307B200310A30DA40DA70AD4282608ED
:1001D800643A031D5629A41F06292D307B202308C5
:1001E800B3002408B4001030B2000310A30DA40D0E
:1001F800B30DB40D031C0429A403A303230FA40AFD
:10020800B20BF92823082404031D0D2930307B2064
:1002180084290430A700A41B4829230824040319AF
:1002280048292308B3002408B400A8011030B200FC
:10023800B30DB40DA80D031825290A302802031C94
:1002480027290A30A802B20B1C292D302707840061
:100258008313280880002308B3002408B400B501DC
:100268001030B200B30DB40DB50D03183F290A3094
:100278003502031C42290A30B5020314A30DA40D4C
:10028800B20B3629A7030F29A70A0530270203183E
:1002980084292D3027078400831300089C207B20A5
:1002A800A70A49292608683A031D742930307B209B
:1002B80078307B20A41B6B29A40803196B29240E12
:1002C8000F399C207B200F3024059C207B20230E97
:1002D8000F399C207B200F3023059C207B2084290C
:1002E8002608663A031D7B2921307B2084292608AD
:1002F800753A031D842923087B20842926087B203E
:10030800A50AB328080083160313A8218501023023
:10031800831685008312083086060130BA21A000B2
:100328002408A10002302102031C8F29031DA029E3
:1003380009302002031C8F29A2012008A3002108EC
:10034800A400B0208F29A7299B0183128501831659
:1003580085018312860104308316860033309900A4
:10036800243098009030831298000800A2000130D1
:10037800A50022080319C529A6000310A50DA60B80
:10038800C129250883169B0003108312A20D0310B0
:10039800A20D0310A20D813022049F008030831625
:1003A8009F0001308312A600A70126201F151F19E0
:1003B800DB291E08A40083161E088312A300080068
:00000001FF
